{
  "_format": "hh-sol-artifact-1",
  "contractName": "FundraiserFactory",
  "sourceName": "contracts/FundraiserFactory.sol",
  "abi": [
    {
      "anonymous": false,
      "inputs": [
        {
          "indexed": true,
          "internalType": "contract Fundraiser",
          "name": "fundraiser",
          "type": "address"
        },
        {
          "indexed": true,
          "internalType": "address",
          "name": "owner",
          "type": "address"
        }
      ],
      "name": "FundraiserCreated",
      "type": "event"
    },
    {
      "inputs": [
        {
          "internalType": "string",
          "name": "name",
          "type": "string"
        },
        {
          "internalType": "string",
          "name": "url",
          "type": "string"
        },
        {
          "internalType": "string",
          "name": "imageURL",
          "type": "string"
        },
        {
          "internalType": "string",
          "name": "description",
          "type": "string"
        },
        {
          "internalType": "address payable",
          "name": "beneficiary",
          "type": "address"
        }
      ],
      "name": "createFundraiser",
      "outputs": [],
      "stateMutability": "nonpayable",
      "type": "function"
    },
    {
      "inputs": [],
      "name": "createFundraiserthree",
      "outputs": [],
      "stateMutability": "nonpayable",
      "type": "function"
    },
    {
      "inputs": [
        {
          "internalType": "string",
          "name": "myText",
          "type": "string"
        }
      ],
      "name": "createFundraisertwo",
      "outputs": [],
      "stateMutability": "nonpayable",
      "type": "function"
    },
    {
      "inputs": [
        {
          "internalType": "string",
          "name": "name",
          "type": "string"
        },
        {
          "internalType": "string",
          "name": "url",
          "type": "string"
        },
        {
          "internalType": "string",
          "name": "imageURL",
          "type": "string"
        },
        {
          "internalType": "string",
          "name": "description",
          "type": "string"
        },
        {
          "internalType": "address payable",
          "name": "beneficiary",
          "type": "address"
        }
      ],
      "name": "createFundraisertwo",
      "outputs": [],
      "stateMutability": "nonpayable",
      "type": "function"
    },
    {
      "inputs": [
        {
          "internalType": "uint256",
          "name": "limit",
          "type": "uint256"
        },
        {
          "internalType": "uint256",
          "name": "offset",
          "type": "uint256"
        }
      ],
      "name": "fundraisers",
      "outputs": [
        {
          "internalType": "contract Fundraiser[]",
          "name": "coll",
          "type": "address[]"
        }
      ],
      "stateMutability": "view",
      "type": "function"
    },
    {
      "inputs": [],
      "name": "fundraisersCount",
      "outputs": [
        {
          "internalType": "uint256",
          "name": "",
          "type": "uint256"
        }
      ],
      "stateMutability": "view",
      "type": "function"
    },
    {
      "inputs": [
        {
          "internalType": "string",
          "name": "myText",
          "type": "string"
        }
      ],
      "name": "set",
      "outputs": [],
      "stateMutability": "nonpayable",
      "type": "function"
    },
    {
      "inputs": [],
      "name": "storedData",
      "outputs": [
        {
          "internalType": "string",
          "name": "",
          "type": "string"
        }
      ],
      "stateMutability": "view",
      "type": "function"
    }
  ],
  "bytecode": "0x6080604052348015600f57600080fd5b50612b0d8061001f6000396000f3fe608060405234801561001057600080fd5b50600436106100885760003560e01c8063704914f81161005b578063704914f8146100ff5780637f4dc6b01461012f5780639d3b43551461014b578063f720cf731461016957610088565b80630d8b37691461008d57806311d752ad146100a95780632a1afcd9146100c55780634ed3885e146100e3575b600080fd5b6100a760048036038101906100a29190610633565b610173565b005b6100c360048036038101906100be91906106da565b610186565b005b6100cd61028d565b6040516100da9190610844565b60405180910390f35b6100fd60048036038101906100f89190610633565b61031b565b005b6101196004803603810190610114919061089c565b61032e565b60405161012691906109ea565b60405180910390f35b610149600480360381019061014491906106da565b6104b7565b005b6101536104be565b6040516101609190610a1b565b60405180910390f35b6101716104ca565b005b80600190816101829190610c38565b5050565b600085858585853360405161019a906104cc565b6101a996959493929190610d3a565b604051809103906000f0801580156101c5573d6000803e3d6000fd5b5090506000819080600181540180825580915050600190039060005260206000200160009091909190916101000a81548173ffffffffffffffffffffffffffffffffffffffff021916908373ffffffffffffffffffffffffffffffffffffffff1602179055503373ffffffffffffffffffffffffffffffffffffffff168173ffffffffffffffffffffffffffffffffffffffff167fa2398daac0c8053a1e3c0280916c2ec6bc884f0959c27e639a4db829b7eabfb160405160405180910390a3505050505050565b6001805461029a90610a65565b80601f01602080910402602001604051908101604052809291908181526020018280546102c690610a65565b80156103135780601f106102e857610100808354040283529160200191610313565b820191906000526020600020905b8154815290600101906020018083116102f657829003601f168201915b505050505081565b806001908161032a9190610c38565b5050565b60606103386104be565b82111561037a576040517f08c379a000000000000000000000000000000000000000000000000000000000815260040161037190610e03565b60405180910390fd5b6000826103856104be565b61038f9190610e52565b905083811061039e57836103a0565b805b9050601481106103b15760146103b3565b805b90508067ffffffffffffffff8111156103cf576103ce610508565b5b6040519080825280602002602001820160405280156103fd5781602001602082028036833780820191505090505b50915060005b818110156104af57600081856104199190610e86565b8154811061042a57610429610eba565b5b9060005260206000200160009054906101000a900473ffffffffffffffffffffffffffffffffffffffff1683828151811061046857610467610eba565b5b602002602001019073ffffffffffffffffffffffffffffffffffffffff16908173ffffffffffffffffffffffffffffffffffffffff16815250508080600101915050610403565b505092915050565b5050505050565b60008080549050905090565b565b611bee80610eea83390190565b6000604051905090565b600080fd5b600080fd5b600080fd5b600080fd5b6000601f19601f8301169050919050565b7f4e487b7100000000000000000000000000000000000000000000000000000000600052604160045260246000fd5b610540826104f7565b810181811067ffffffffffffffff8211171561055f5761055e610508565b5b80604052505050565b60006105726104d9565b905061057e8282610537565b919050565b600067ffffffffffffffff82111561059e5761059d610508565b5b6105a7826104f7565b9050602081019050919050565b82818337600083830152505050565b60006105d66105d184610583565b610568565b9050828152602081018484840111156105f2576105f16104f2565b5b6105fd8482856105b4565b509392505050565b600082601f83011261061a576106196104ed565b5b813561062a8482602086016105c3565b91505092915050565b600060208284031215610649576106486104e3565b5b600082013567ffffffffffffffff811115610667576106666104e8565b5b61067384828501610605565b91505092915050565b600073ffffffffffffffffffffffffffffffffffffffff82169050919050565b60006106a78261067c565b9050919050565b6106b78161069c565b81146106c257600080fd5b50565b6000813590506106d4816106ae565b92915050565b600080600080600060a086880312156106f6576106f56104e3565b5b600086013567ffffffffffffffff811115610714576107136104e8565b5b61072088828901610605565b955050602086013567ffffffffffffffff811115610741576107406104e8565b5b61074d88828901610605565b945050604086013567ffffffffffffffff81111561076e5761076d6104e8565b5b61077a88828901610605565b935050606086013567ffffffffffffffff81111561079b5761079a6104e8565b5b6107a788828901610605565b92505060806107b8888289016106c5565b9150509295509295909350565b600081519050919050565b600082825260208201905092915050565b60005b838110156107ff5780820151818401526020810190506107e4565b60008484015250505050565b6000610816826107c5565b61082081856107d0565b93506108308185602086016107e1565b610839816104f7565b840191505092915050565b6000602082019050818103600083015261085e818461080b565b905092915050565b6000819050919050565b61087981610866565b811461088457600080fd5b50565b60008135905061089681610870565b92915050565b600080604083850312156108b3576108b26104e3565b5b60006108c185828601610887565b92505060206108d285828601610887565b9150509250929050565b600081519050919050565b600082825260208201905092915050565b6000819050602082019050919050565b6000819050919050565b600061092d6109286109238461067c565b610908565b61067c565b9050919050565b600061093f82610912565b9050919050565b600061095182610934565b9050919050565b61096181610946565b82525050565b60006109738383610958565b60208301905092915050565b6000602082019050919050565b6000610997826108dc565b6109a181856108e7565b93506109ac836108f8565b8060005b838110156109dd5781516109c48882610967565b97506109cf8361097f565b9250506001810190506109b0565b5085935050505092915050565b60006020820190508181036000830152610a04818461098c565b905092915050565b610a1581610866565b82525050565b6000602082019050610a306000830184610a0c565b92915050565b7f4e487b7100000000000000000000000000000000000000000000000000000000600052602260045260246000fd5b60006002820490506001821680610a7d57607f821691505b602082108103610a9057610a8f610a36565b5b50919050565b60008190508160005260206000209050919050565b60006020601f8301049050919050565b600082821b905092915050565b600060088302610af87fffffffffffffffffffffffffffffffffffffffffffffffffffffffffffffffff82610abb565b610b028683610abb565b95508019841693508086168417925050509392505050565b6000610b35610b30610b2b84610866565b610908565b610866565b9050919050565b6000819050919050565b610b4f83610b1a565b610b63610b5b82610b3c565b848454610ac8565b825550505050565b600090565b610b78610b6b565b610b83818484610b46565b505050565b5b81811015610ba757610b9c600082610b70565b600181019050610b89565b5050565b601f821115610bec57610bbd81610a96565b610bc684610aab565b81016020851015610bd5578190505b610be9610be185610aab565b830182610b88565b50505b505050565b600082821c905092915050565b6000610c0f60001984600802610bf1565b1980831691505092915050565b6000610c288383610bfe565b9150826002028217905092915050565b610c41826107c5565b67ffffffffffffffff811115610c5a57610c59610508565b5b610c648254610a65565b610c6f828285610bab565b600060209050601f831160018114610ca25760008415610c90578287015190505b610c9a8582610c1c565b865550610d02565b601f198416610cb086610a96565b60005b82811015610cd857848901518255600182019150602085019450602081019050610cb3565b86831015610cf55784890151610cf1601f891682610bfe565b8355505b6001600288020188555050505b505050505050565b610d138161069c565b82525050565b6000610d248261067c565b9050919050565b610d3481610d19565b82525050565b600060c0820190508181036000830152610d54818961080b565b90508181036020830152610d68818861080b565b90508181036040830152610d7c818761080b565b90508181036060830152610d90818661080b565b9050610d9f6080830185610d0a565b610dac60a0830184610d2b565b979650505050505050565b7f6f6666736574206f7574206f6620626f756e6473000000000000000000000000600082015250565b6000610ded6014836107d0565b9150610df882610db7565b602082019050919050565b60006020820190508181036000830152610e1c81610de0565b9050919050565b7f4e487b7100000000000000000000000000000000000000000000000000000000600052601160045260246000fd5b6000610e5d82610866565b9150610e6883610866565b9250828203905081811115610e8057610e7f610e23565b5b92915050565b6000610e9182610866565b9150610e9c83610866565b9250828201905080821115610eb457610eb3610e23565b5b92915050565b7f4e487b7100000000000000000000000000000000000000000000000000000000600052603260045260246000fdfe60806040526040518060400160405280600281526020017f6d6500000000000000000000000000000000000000000000000000000000000081525060029081610048919061054b565b506040518060400160405280600481526020017f68747470000000000000000000000000000000000000000000000000000000008152506003908161008d919061054b565b506040518060400160405280600881526020017f6a756e6b2e706e67000000000000000000000000000000000000000000000000815250600490816100d2919061054b565b506040518060400160405280600481526020017f746573740000000000000000000000000000000000000000000000000000000081525060059081610117919061054b565b5034801561012457600080fd5b50604051611bee380380611bee833981810160405281019061014691906107ff565b61016261015761022f60201b60201c565b61023760201b60201c565b8560029081610171919061054b565b508460039081610181919061054b565b508360049081610191919061054b565b5082600590816101a1919061054b565b5081600660006101000a81548173ffffffffffffffffffffffffffffffffffffffff021916908373ffffffffffffffffffffffffffffffffffffffff16021790555080600760006101000a81548173ffffffffffffffffffffffffffffffffffffffff021916908373ffffffffffffffffffffffffffffffffffffffff1602179055505050505050506108fc565b600033905090565b60008060009054906101000a900473ffffffffffffffffffffffffffffffffffffffff169050816000806101000a81548173ffffffffffffffffffffffffffffffffffffffff021916908373ffffffffffffffffffffffffffffffffffffffff1602179055508173ffffffffffffffffffffffffffffffffffffffff168173ffffffffffffffffffffffffffffffffffffffff167f8be0079c531659141344cd1fd0a4f28419497f9722a3daafe3b4186f6b6457e060405160405180910390a35050565b600081519050919050565b7f4e487b7100000000000000000000000000000000000000000000000000000000600052604160045260246000fd5b7f4e487b7100000000000000000000000000000000000000000000000000000000600052602260045260246000fd5b6000600282049050600182168061037c57607f821691505b60208210810361038f5761038e610335565b5b50919050565b60008190508160005260206000209050919050565b60006020601f8301049050919050565b600082821b905092915050565b6000600883026103f77fffffffffffffffffffffffffffffffffffffffffffffffffffffffffffffffff826103ba565b61040186836103ba565b95508019841693508086168417925050509392505050565b6000819050919050565b6000819050919050565b600061044861044361043e84610419565b610423565b610419565b9050919050565b6000819050919050565b6104628361042d565b61047661046e8261044f565b8484546103c7565b825550505050565b600090565b61048b61047e565b610496818484610459565b505050565b5b818110156104ba576104af600082610483565b60018101905061049c565b5050565b601f8211156104ff576104d081610395565b6104d9846103aa565b810160208510156104e8578190505b6104fc6104f4856103aa565b83018261049b565b50505b505050565b600082821c905092915050565b600061052260001984600802610504565b1980831691505092915050565b600061053b8383610511565b9150826002028217905092915050565b610554826102fb565b67ffffffffffffffff81111561056d5761056c610306565b5b6105778254610364565b6105828282856104be565b600060209050601f8311600181146105b557600084156105a3578287015190505b6105ad858261052f565b865550610615565b601f1984166105c386610395565b60005b828110156105eb578489015182556001820191506020850194506020810190506105c6565b868310156106085784890151610604601f891682610511565b8355505b6001600288020188555050505b505050505050565b6000604051905090565b600080fd5b600080fd5b600080fd5b600080fd5b6000601f19601f8301169050919050565b6106558261063b565b810181811067ffffffffffffffff8211171561067457610673610306565b5b80604052505050565b600061068761061d565b9050610693828261064c565b919050565b600067ffffffffffffffff8211156106b3576106b2610306565b5b6106bc8261063b565b9050602081019050919050565b60005b838110156106e75780820151818401526020810190506106cc565b60008484015250505050565b600061070661070184610698565b61067d565b90508281526020810184848401111561072257610721610636565b5b61072d8482856106c9565b509392505050565b600082601f83011261074a57610749610631565b5b815161075a8482602086016106f3565b91505092915050565b600073ffffffffffffffffffffffffffffffffffffffff82169050919050565b600061078e82610763565b9050919050565b61079e81610783565b81146107a957600080fd5b50565b6000815190506107bb81610795565b92915050565b60006107cc82610763565b9050919050565b6107dc816107c1565b81146107e757600080fd5b50565b6000815190506107f9816107d3565b92915050565b60008060008060008060c0878903121561081c5761081b610627565b5b600087015167ffffffffffffffff81111561083a5761083961062c565b5b61084689828a01610735565b965050602087015167ffffffffffffffff8111156108675761086661062c565b5b61087389828a01610735565b955050604087015167ffffffffffffffff8111156108945761089361062c565b5b6108a089828a01610735565b945050606087015167ffffffffffffffff8111156108c1576108c061062c565b5b6108cd89828a01610735565b93505060806108de89828a016107ac565b92505060a06108ef89828a016107ea565b9150509295509295509295565b6112e38061090b6000396000f3fe6080604052600436106100f25760003560e01c80635600f04f1161008a578063b90497e011610059578063b90497e0146102b1578063de2ed893146102dc578063ed88c68e14610307578063f2fde38b14610311576100f2565b80635600f04f14610219578063715018a6146102445780637284e4161461025b5780638da5cb5b14610286576100f2565b80631c31f710116100c65780631c31f710146101835780631f522595146101ac57806338af3eed146101d75780633ccfd60b14610202576100f2565b80625c33e1146100f75780630180b97c1461010157806306fdde031461012c5780631a57f7b414610157575b600080fd5b6100ff61033a565b005b34801561010d57600080fd5b5061011661036f565b6040516101239190610d35565b60405180910390f35b34801561013857600080fd5b506101416103b9565b60405161014e9190610de0565b60405180910390f35b34801561016357600080fd5b5061016c610447565b60405161017a929190610ec0565b60405180910390f35b34801561018f57600080fd5b506101aa60048036038101906101a59190610f5a565b6105b6565b005b3480156101b857600080fd5b506101c1610676565b6040516101ce9190610d35565b60405180910390f35b3480156101e357600080fd5b506101ec61067c565b6040516101f99190610f96565b60405180910390f35b34801561020e57600080fd5b506102176106a2565b005b34801561022557600080fd5b5061022e6107c6565b60405161023b9190610de0565b60405180910390f35b34801561025057600080fd5b50610259610854565b005b34801561026757600080fd5b506102706108dc565b60405161027d9190610de0565b60405180910390f35b34801561029257600080fd5b5061029b61096a565b6040516102a89190610fd2565b60405180910390f35b3480156102bd57600080fd5b506102c6610993565b6040516102d39190610de0565b60405180910390f35b3480156102e857600080fd5b506102f1610a21565b6040516102fe9190610d35565b60405180910390f35b61030f610a27565b005b34801561031d57600080fd5b5061033860048036038101906103339190611019565b610b43565b005b61034f34600854610c3a90919063ffffffff16565b6008819055506009600081548092919061036890611075565b9190505550565b6000600160003373ffffffffffffffffffffffffffffffffffffffff1673ffffffffffffffffffffffffffffffffffffffff16815260200190815260200160002080549050905090565b600280546103c6906110ec565b80601f01602080910402602001604051908101604052809291908181526020018280546103f2906110ec565b801561043f5780601f106104145761010080835404028352916020019161043f565b820191906000526020600020905b81548152906001019060200180831161042257829003601f168201915b505050505081565b606080600061045461036f565b90508067ffffffffffffffff8111156104705761046f61111d565b5b60405190808252806020026020018201604052801561049e5781602001602082028036833780820191505090505b5092508067ffffffffffffffff8111156104bb576104ba61111d565b5b6040519080825280602002602001820160405280156104e95781602001602082028036833780820191505090505b50915060005b818110156105b0576000600160003373ffffffffffffffffffffffffffffffffffffffff1673ffffffffffffffffffffffffffffffffffffffff168152602001908152602001600020828154811061054a5761054961114c565b5b9060005260206000209060020201905080600001548583815181106105725761057161114c565b5b60200260200101818152505080600101548483815181106105965761059561114c565b5b6020026020010181815250505080806001019150506104ef565b50509091565b6105be610c50565b73ffffffffffffffffffffffffffffffffffffffff166105dc61096a565b73ffffffffffffffffffffffffffffffffffffffff1614610632576040517f08c379a0000000000000000000000000000000000000000000000000000000008152600401610629906111c7565b60405180910390fd5b80600660006101000a81548173ffffffffffffffffffffffffffffffffffffffff021916908373ffffffffffffffffffffffffffffffffffffffff16021790555050565b60095481565b600660009054906101000a900473ffffffffffffffffffffffffffffffffffffffff1681565b6106aa610c50565b73ffffffffffffffffffffffffffffffffffffffff166106c861096a565b73ffffffffffffffffffffffffffffffffffffffff161461071e576040517f08c379a0000000000000000000000000000000000000000000000000000000008152600401610715906111c7565b60405180910390fd5b6000479050600660009054906101000a900473ffffffffffffffffffffffffffffffffffffffff1673ffffffffffffffffffffffffffffffffffffffff166108fc829081150290604051600060405180830381858888f1935050505015801561078b573d6000803e3d6000fd5b507f5b6b431d4476a211bb7d41c20d1aab9ae2321deee0d20be3d9fc9b1093fa6e3d816040516107bb9190610d35565b60405180910390a150565b600380546107d3906110ec565b80601f01602080910402602001604051908101604052809291908181526020018280546107ff906110ec565b801561084c5780601f106108215761010080835404028352916020019161084c565b820191906000526020600020905b81548152906001019060200180831161082f57829003601f168201915b505050505081565b61085c610c50565b73ffffffffffffffffffffffffffffffffffffffff1661087a61096a565b73ffffffffffffffffffffffffffffffffffffffff16146108d0576040517f08c379a00000000000000000000000000000000000000000000000000000000081526004016108c7906111c7565b60405180910390fd5b6108da6000610c58565b565b600580546108e9906110ec565b80601f0160208091040260200160405190810160405280929190818152602001828054610915906110ec565b80156109625780601f1061093757610100808354040283529160200191610962565b820191906000526020600020905b81548152906001019060200180831161094557829003601f168201915b505050505081565b60008060009054906101000a900473ffffffffffffffffffffffffffffffffffffffff16905090565b600480546109a0906110ec565b80601f01602080910402602001604051908101604052809291908181526020018280546109cc906110ec565b8015610a195780601f106109ee57610100808354040283529160200191610a19565b820191906000526020600020905b8154815290600101906020018083116109fc57829003601f168201915b505050505081565b60085481565b60006040518060400160405280348152602001428152509050600160003373ffffffffffffffffffffffffffffffffffffffff1673ffffffffffffffffffffffffffffffffffffffff16815260200190815260200160002081908060018154018082558091505060019003906000526020600020906002020160009091909190915060008201518160000155602082015181600101555050610ad434600854610c3a90919063ffffffff16565b60088190555060096000815480929190610aed90611075565b91905055503373ffffffffffffffffffffffffffffffffffffffff167f264f630d9efa0d07053a31163641d9fcc0adafc9d9e76f1c37c2ce3a558d2c5234604051610b389190610d35565b60405180910390a250565b610b4b610c50565b73ffffffffffffffffffffffffffffffffffffffff16610b6961096a565b73ffffffffffffffffffffffffffffffffffffffff1614610bbf576040517f08c379a0000000000000000000000000000000000000000000000000000000008152600401610bb6906111c7565b60405180910390fd5b600073ffffffffffffffffffffffffffffffffffffffff168173ffffffffffffffffffffffffffffffffffffffff1603610c2e576040517f08c379a0000000000000000000000000000000000000000000000000000000008152600401610c2590611259565b60405180910390fd5b610c3781610c58565b50565b60008183610c489190611279565b905092915050565b600033905090565b60008060009054906101000a900473ffffffffffffffffffffffffffffffffffffffff169050816000806101000a81548173ffffffffffffffffffffffffffffffffffffffff021916908373ffffffffffffffffffffffffffffffffffffffff1602179055508173ffffffffffffffffffffffffffffffffffffffff168173ffffffffffffffffffffffffffffffffffffffff167f8be0079c531659141344cd1fd0a4f28419497f9722a3daafe3b4186f6b6457e060405160405180910390a35050565b6000819050919050565b610d2f81610d1c565b82525050565b6000602082019050610d4a6000830184610d26565b92915050565b600081519050919050565b600082825260208201905092915050565b60005b83811015610d8a578082015181840152602081019050610d6f565b60008484015250505050565b6000601f19601f8301169050919050565b6000610db282610d50565b610dbc8185610d5b565b9350610dcc818560208601610d6c565b610dd581610d96565b840191505092915050565b60006020820190508181036000830152610dfa8184610da7565b905092915050565b600081519050919050565b600082825260208201905092915050565b6000819050602082019050919050565b610e3781610d1c565b82525050565b6000610e498383610e2e565b60208301905092915050565b6000602082019050919050565b6000610e6d82610e02565b610e778185610e0d565b9350610e8283610e1e565b8060005b83811015610eb3578151610e9a8882610e3d565b9750610ea583610e55565b925050600181019050610e86565b5085935050505092915050565b60006040820190508181036000830152610eda8185610e62565b90508181036020830152610eee8184610e62565b90509392505050565b600080fd5b600073ffffffffffffffffffffffffffffffffffffffff82169050919050565b6000610f2782610efc565b9050919050565b610f3781610f1c565b8114610f4257600080fd5b50565b600081359050610f5481610f2e565b92915050565b600060208284031215610f7057610f6f610ef7565b5b6000610f7e84828501610f45565b91505092915050565b610f9081610f1c565b82525050565b6000602082019050610fab6000830184610f87565b92915050565b6000610fbc82610efc565b9050919050565b610fcc81610fb1565b82525050565b6000602082019050610fe76000830184610fc3565b92915050565b610ff681610fb1565b811461100157600080fd5b50565b60008135905061101381610fed565b92915050565b60006020828403121561102f5761102e610ef7565b5b600061103d84828501611004565b91505092915050565b7f4e487b7100000000000000000000000000000000000000000000000000000000600052601160045260246000fd5b600061108082610d1c565b91507fffffffffffffffffffffffffffffffffffffffffffffffffffffffffffffffff82036110b2576110b1611046565b5b600182019050919050565b7f4e487b7100000000000000000000000000000000000000000000000000000000600052602260045260246000fd5b6000600282049050600182168061110457607f821691505b602082108103611117576111166110bd565b5b50919050565b7f4e487b7100000000000000000000000000000000000000000000000000000000600052604160045260246000fd5b7f4e487b7100000000000000000000000000000000000000000000000000000000600052603260045260246000fd5b7f4f776e61626c653a2063616c6c6572206973206e6f7420746865206f776e6572600082015250565b60006111b1602083610d5b565b91506111bc8261117b565b602082019050919050565b600060208201905081810360008301526111e0816111a4565b9050919050565b7f4f776e61626c653a206e6577206f776e657220697320746865207a65726f206160008201527f6464726573730000000000000000000000000000000000000000000000000000602082015250565b6000611243602683610d5b565b915061124e826111e7565b604082019050919050565b6000602082019050818103600083015261127281611236565b9050919050565b600061128482610d1c565b915061128f83610d1c565b92508282019050808211156112a7576112a6611046565b5b9291505056fea264697066735822122068b8c9f2864057aad573d803eb294e3f67e11193d7a1efba5d8bc04e6ec5eee164736f6c634300081c0033a2646970667358221220694f7d5c5d4b50a4b51099b8bec38d35c065986231e1011b40f3ad8b89fc167164736f6c634300081c0033",
  "linkReferences": {},
  "deployedLinkReferences": {}
}